S00E00004E65776269652E73726563BC
S11300000C943B000C9458000C9458000C94580029
S11300100C9458000C9458000C9458000C945309F8
S11300200C9458000C9458000C9458000C945800EC
S11300300C9458000C9458000C942E090C945800FD
S11300400C9458000C9458000C9458000C945800CC
S11300500C9458000C9458000C9458000C945800BC
S11300600C9458000C9458008806810673067A068E
S11300709606CC060A0711241FBECFEFD8E0DEBFD8
S1130080CDBF11E0A0E0B1E0EEE9F9E102C00590D6
S11300900D92A43BB107D9F721E0A4EBB1E001C074
S11300A01D92AB3CB207E1F70E94BD070C94CD0C46
S11300B00C9400004F925F926F927F928F929F9266
S11300C0AF92BF92CF92DF92EF92FF920F931F9362
S11300D0CF93DF93CDB7DEB761970FB6F894DEBF49
S11300E00FBECDBF80E090E00E94800C882E8FEF81
S11300F0880D8E3F90F041E061E082E091E00E9443
S11301007D032FEF89E698E1215080409040E1F78C
S113011000C000000E94700382C00E94700341E08E
S113012061E08FE091E00E947D032FEF83ED90E387
S1130130215080409040E1F700C000000E9470030D
S1130140912C22E08216910408F458C001E010E0DA
S1130150FF24F3940F2EFCE1AF2EF1E0BF2EF02D1F
S11301600F2EF1E14F2EF02DCE0101966C01C80146
S11301700E94800CE82EC80101960E94800C782E03
S1130180C80102960E94800C682EC80103960E9442
S1130190800C582EC80104960E94800C1F928F93E5
S11301A01F925F921F926F921F927F921F92EF9203
S11301B01F92FF92BF92AF921F924F92DF92CF9203
S11301C00E94BF0941E061E0C6010E947D039FEFE8
S11301D029E688E1915020408040E1F700C000000A
S11301E00E947003F3940B5F1F4F0FB6F894DEBFA9
S11301F00FBECDBF0815190508F4B9CF41E061E081
S11302008AE391E00E947D039FEF27E883E1915008
S113021020408040E1F700C000000E947003619616
S11302200FB6F894DEBF0FBECDBFDF91CF911F9103
S11302300F91FF90EF90DF90CF90BF90AF909F9081
S11302408F907F906F905F904F9008953F924F9260
S11302505F926F927F928F929F92AF92BF92CF9252
S1130260DF92EF92FF920F931F93CF93DF93C0908F
S11302700001D090010122E0C216D10468F561E0CA
S113028070E080E090E03BC0CE01840D951D0E949B
S1130290800CF20191912F01891301C033944E1403
S11302A05F0491F7F4E03F1211C00C5F1F4FC801C7
S11302B00E94800CF301808361E0811160E0C80139
S11302C00E94880C60E070E0CB0119C00B5F1F4FE7
S11302D00C151D0550F00FC03B014C0101E010E06E
S11302E05C017C01F4E0EF0EF11C2401312CE801E7
S11302F0CA19DB09C9CF61E070E080E090E0DF91CA
S1130300CF911F910F91FF90EF90DF90CF90BF900E
S1130310AF909F908F907F906F905F904F903F90A1
S11303200895AF92BF92CF92DF92EF92FF920F9314
S11303301F93CF93DF931F92CDB7DEB75C018B0180
S11303401982BE016F5F7F4FC8010E942601672B8F
S1130350682B692B69F1BE016F5F7F4FC8010E9452
S1130360260168010C5F1F4F7501F60161916F0151
S1130370C7010E94880CFFEFEF1AFF0AC016D106CE
S1130380A1F760E0C50104960E94880C6091000109
S1130390709101016B5F7F4F7093010160930001C5
S11303A080E090E00E94880C60E070E0CB0104C023
S11303B065E070E080E090E00F90DF91CF911F91B5
S11303C00F91FF90EF90DF90CF90BF90AF90089582
S11303D0CF93DF930E94700341E061E086E491E0F3
S11303E00E947D03C0E0D0E06FEFCE010E94880C34
S11303F0F999FECF2196C11524E0D207A9F761E04F
S113040080E090E00E94880C81E090E090930101EC
S1130410809300010E94700341E061E089E591E06E
S11304200E947D038FEF99E628E18150904020409F
S1130430E1F700C000000E945A000E947003DF919F
S1130440CF9108951092B90088E48093B80084E0B5
S11304508093BC0060E070E0CB010895382F40EA3F
S113046056E861E070E0ECEBF0E090819923B4F49D
S11304702091B900287F81E090E0A0E0B0E0231350
S113048003C080E090E0DC019C01AD016627772782
S1130490CB01621B730B840B950B089541505109DA
S11304A06109710911F76FEF7FEFCB0108950F9385
S11304B01F9384EA8093BC0088E00E942E0201E02E
S11304C010E020E030E06F3F7F4F8F4F9F4F19F0D7
S11304D000E010E0980166277727CB01601B710BC1
S11304E0820B930B1F910F9108950F931F93CF933A
S11304F0C62F8093BB0084E88093BC0088E10E94EF
S11305002E026F3F2FEF720782079207D9F0C09334
S1130510BB0084E88093BC0088E20E942E0201E0C4
S113052010E020E030E06F3F7F4F8F4F9F4F19F076
S113053000E010E0980166277727CB01601B710B60
S1130540820B930BCF911F910F9108950F931F93DB
S11305508093BB0084E88093BC0088E20E942E0252
S113056001E010E020E030E06F3F7F4F8F4F9F4F5E
S113057019F000E010E0980166277727CB01601B93
S1130580710B820B930B1F910F91089584E9809353
S1130590BC0085E38A95F1F7000060E070E0CB01D0
S11305A00895CF93DF93C82FD82FD07F0E9457028E
S11305B0C295C07F6D2F6D608EE40E9475028D2FF1
S11305C089600E94A6028C2F8D600E94A6028C2F47
S11305D089600E94A6020E94C60260E070E0CB011E
S11305E0DF91CF9108950F931F93CF93C82F80E18C
S11305F0C89F800111240E945702C07F0C7F6C2F7A
S11306006C608EE40E9475028C2F88600E94A602A2
S1130610802F8C600E94A602802F88600E94A60210
S11306200E94C60260E070E0CB01CF911F910F9150
S113063008950E9422020E9457028FE59AEE0197C4
S1130640F1F700C0000064E38EE40E94750280E3C9
S11306500E94A6028FE19EE40197F1F700C000001A
S113066084E30E94A60280E30E94A60287E592E04A
S11306700197F1F700C0000084E30E94A60280E322
S11306800E94A60287E592E00197F1F700C00000FE
S113069084E20E94A60280E20E94A6020E94C60290
S11306A087E592E00197F1F700C0000060E070E098
S11306B0CB01089588E20E94F3028CE00E94F302C9
S11306C081E00E94F3028FE39FE10197F1F700C0FC
S11306D0000086E00E94F30260E070E0CB01089520
S11306E081E00E94F3028FE39FE10197F1F700C0DC
S11306F0000060E070E0CB010895CF93DF932FEF0B
S1130700240F2031E0F4EC01613019F0623031F053
S11307101BC08FE7840F0E94F30204C08FEB840F89
S11307200E94F30288818823A1F021960E94D102BD
S113073089918111FBCF60E070E0CB010DC06EEFB9
S11307407FEF8FEF9FEF08C06DEF7FEF8FEF9FEF8D
S113075003C060E070E0CB01DF91CF9108954F9228
S11307605F926F927F92AF92BF92CF92DF92EF929D
S1130770FF921F93CF93DF93CDB7DEB72A970FB6BF
S1130780F894DEBF0FBECDBF6B017C018FEF820FEB
S1130790803108F067C0413019F0423031F067C051
S11307A08FE7820F0E94F30204C08FEB820F0E9436
S11307B0F302C114D104E104F10439F480E30E948A
S11307C0D10260E070E0CB015EC0FF208CF4F094B5
S11307D0E094D094C094C11CD11CE11CF11C8DE2A6
S11307E00E94D102C114D104E104F10409F444C00B
S11307F080E00F2EFAE04F2E512C612C712CF02D3D
S113080011E0180FAA24A394B12CAC0EBD1EA80E9F
S1130810B11CC701B601A30192010E947809605D71
S1130820F5016083C22ED32EE42EF52E812FC11440
S1130830D104E104F10421F7812F90E0019702F142
S1130840CE0101967C01E10EF11C6C01F70182914D
S11308507F010E94D102EC14FD04C1F760E070E056
S1130860CB0111C06EEF7FEF8FEF9FEF0CC06DEFE8
S11308707FEF8FEF9FEF07C060E070E0CB0103C014
S113088060E070E0CB012A960FB6F894DEBF0FBE8D
S1130890CDBFDF91CF911F91FF90EF90DF90CF906C
S11308A0BF90AF907F906F905F904F90089584B108
S11308B08C6284B924982A9A82E58CBD8DB58E7F8A
S11308C08DBD60E070E0CB0108952A988EBD8FE95C
S11308D096E8A1E0B0E00DB407FE06C02EB5892B62
S11308E08A2B8B2B29F41BC00197A109B10998F716
S11308F06EBD8FE996E8A1E0B0E00DB407FE06C036
S11309002EB5892B8A2B8B2B29F40EC00197A109B4
S1130910B10998F72A9A60E070E0CB01089561E08C
S113092070E080E090E0089561E070E080E090E0A5
S113093008952A988EBD8FE996E8A1E0B0E00DB441
S113094007FE06C06EB5892B8A2B8B2B31F41CC095
S11309500197A109B10998F760E01EBC8FE996E8F8
S1130960A1E0B0E00DB407FE06C06EB5892B8A2B5A
S11309708B2B29F40EC00197A109B10998F72A9A83
S113098070E080E090E0089561E070E080E090E045
S1130990089561E070E080E090E00895880F806839
S11309A00E9499047727882799270895509A589880
S11309B08FE19EE40197F1F700C00000589A9FEF81
S11309C020E782E0915020408040E1F700C0000021
S11309D008956FE082E00E9465042FEF80E792E0C3
S11309E0215080409040E1F700C0000060E884E5B9
S11309F00E94650469EA86E50E94650463E088E56F
S1130A000E94650468EE8AE50E94650460E084E261
S1130A100E94650460E086E20E94650466E288E460
S1130A200E9465046DE382E20E94650460E48AE248
S1130A300E94650484E10E94CE04862F837021F411
S1130A40636088E20E9465040895CF93DF9367E0B2
S1130A508AE10E94650466E282E10E9465046CE01A
S1130A6082E00E94650467E88AE10E946504C1E5AA
S1130A70D3EC84E00E94CE0465FD02C02197C9F73F
S1130A8086E00E94CE04C62F8CE00E94CE04C3717F
S1130A9021F5677039F58FE193E00197F1F700C014
S1130AA000008AE00E94CE04623009F589E00E94C9
S1130AB0CE04C62F89E00E94CE0481E0C43009F43C
S1130AC080E0811119C081E0611101C080E08111D1
S1130AD013C060E070E0CB0113C062E070E080E01E
S1130AE090E00EC063E070E080E090E009C064E054
S1130AF070E080E090E004C065E070E080E090E0A9
S1130B00DF91CF9108956F927F928F929F92AF92CF
S1130B10BF92CF92DF92EF92FF920F931F93CF93E6
S1130B20DF9300D000D01F92CDB7DEB7682E792EA8
S1130B300E9425056B017C01672B682B692B09F04A
S1130B4077C00E94700360E08AE10E94650463E953
S1130B5082E10E94650460E282E10E94650460E82B
S1130B608AE10E94650401E513EC84E00E94CE044E
S1130B7065FD03C001501109C1F786E00E94CE044F
S1130B80162F8CE00E94CE04137109F056C06770D2
S1130B9009F059C08FE99FE00197F1F700C0000008
S1130BA08AE00E94CE04653009F055C0FE013196FA
S1130BB085E0DF011D928A95E9F74F015E01B6E0F9
S1130BC0AB0EB11C8F0189E00E94CE04F801619341
S1130BD08F01EA15FB05B9F799818A8198278B81E2
S1130BE098278C8189279D8189133DC0062D172D57
S1130BF05E01F5E0AF0EB11CD4016D914D01F80119
S1130C0061938F0170E080E090E021E042E00E9477
S1130C10AF03FFEF24E38CE0F15020408040E1F784
S1130C2000C000000E947003A814B90429F722C070
S1130C30C12CD12C7601C3941DC0C12CD12C7601BA
S1130C406894C1F817C00F2EF3E0CF2ED12CE12CFD
S1130C50F12CF02D0FC00F2EF6E0CF2ED12CE12C6D
S1130C60F12CF02D07C00F2EF7E0CF2ED12CE12C64
S1130C70F12CF02DC701B6010F900F900F900F903B
S1130C800F90DF91CF911F910F91FF90EF90DF9024
S1130C90CF90BF90AF909F908F907F906F9008956A
S1130CA0219A82E8809380008AE1809381008FE317
S1130CB09CE9909387008093860008950F931F9377
S1130CC0CF93DF931F92CDB7DEB7E091C2018E2F91
S1130CD090E0FC013197E730F10508F0DCC0EC5CF2
S1130CE0FF4F0C94970941E061E087E691E00E9490
S1130CF07D03D1C041E061E085E791E00E947D037E
S1130D00CAC041E061E080E891E00E947D03C3C075
S1130D100E9417096093BE017093BF018093C001C4
S1130D209093C10185E08093C201B5C00E94170968
S1130D300091BE011091BF012091C0013091C10109
S1130D40DC01CB01801B910BA20BB30B843F9140C0
S1130D50A105B10508F49FC00E9417096093BE0164
S1130D607093BF018093C0019093C1010E947003EE
S1130D708091BA019091BB01A091BC01B091BD01D9
S1130D800397A105B10520F087E08093C20183C0D9
S1130D9086E08093C2017FC00E9417090091BE01C2
S1130DA01091BF012091C0013091C101DC01CB0140
S1130DB0801B910BA20BB30B0297A105B10508F49C
S1130DC06AC00E9417096093BE017093BF018093AB
S1130DD0C0019093C10141E061E08DE891E00E947F
S1130DE07D030091BA011091BB012091BC013091A7
S1130DF0BD0182E090E0A0E0B0E0BC01CD01601B49
S1130E00710B820B930B21E042E00E94AF0310921E
S1130E10C20141C00E9417090091BE011091BF0197
S1130E202091C0013091C101DC01CB01801B910BE9
S1130E30A20BB30B0297A105B10568F10E94170933
S1130E406093BE017093BF018093C0019093C10170
S1130E5041E061E08CE991E00E947D038091BA0158
S1130E609091BB01A091BC01B091BD010197A10972
S1130E70B1098093BA019093BB01A093BC01B093D4
S1130E80BD011982BE016F5F7F4F84EB91E00E9428
S1130E9026011092C2010F90DF91CF911F910F9103
S1130EA008958091B901823031F18530C1F08130EB
S1130EB081F541E063E088E290E00E94CD0880E3A0
S1130EC091E1909389008093880041E064E088E296
S1130ED090E00E94CD0885E08093B901089589B11E
S1130EE067E00E94ED08672B682B692B91F482E080
S1130EF08093B901089541E063E088E290E00E94A4
S1130F00CD0880ED97E0909389008093880010923B
S1130F10B90108958091B801843001F1853091F0D0
S1130F20833051F540E063E088E290E00E94CD0810
S1130F3080EA9FE0909389008093880085E0809305
S1130F40B801089589B166E00E94ED08672B682B0B
S1130F50692B91F484E08093B801089540E063E044
S1130F6088E290E00E94CD0880ED97E0909389009C
S1130F70809388001092B8010895CF93DF931F9255
S1130F80CDB7DEB70E9419030E945A030E9457048A
S1130F900E94D6040E94E9040E9420090E940609C6
S1130FA080E090E00E94800C90E090930101809397
S1130FB000018F3F910531F481E090E090930101AD
S1130FC0809300013B9A52988AB18F738AB93A9AF6
S1130FD00E9417092B013C010E9417094B015C0177
S1130FE00E9417096B017C0119820E9450060E941D
S1130FF0E80113E004E00E945E060E9451070E948B
S11310008A070E941709DC01CB018C199D09AE09DE
S1131010BF09893C9105A105B10550F00E9417094B
S11310206B017C0140E062E088E290E00E94CD0820
S113103089B162E00E94ED08672B682B692B91F55A
S11310400E941709DC01CB0188199909AA09BB0977
S1131050833F9340A105B10570F20E9417094B012B
S11310605C0184EB91E00E948305672B682B692B5C
S113107011F641E062E088E290E00E94CD0864EB62
S113108071E080910001909101010E949101611130
S113109003C01093C201AFCF653009F0ACCF009309
S11310A0C201A9CF0E941709DC01CB01841995095B
S11310B0A609B709823F9340A105B10508F49BCF67
S11310C00E9417092B013C0184EB91E00E948305E7
S11310D0672B682B692B09F08ECF41E062E08BE22D
S11310E090E00E94CD08BE016F5F7F4F84EB91E0DA
S11310F00E942601672B682B692B09F04AC081E006
S11311008093C2018981811120C08091BA0190919C
S1131110BB01A091BC01B091BD010196A11DB11DFF
S11311208093BA019093BB01A093BC01B093BD011D
S11311300397A105B10529F41092B9011092B801E1
S11311405ACF81E08093B90156CF813009F053CF53
S11311501093B8018091BA019091BB01A091BC0198
S1131160B091BD010097A105B10539F441E062E0F9
S11311708AEA91E00E947D03FFCF0197A109B1099A
S11311808093BA019093BB01A093BC01B093BD01BD
S113119032CF82E08093C2012ECF413061F4FC0152
S11311A0408121E030E002C0220F331F6A95E2F74C
S11311B0242B20830EC041110CC0FC01408121E08E
S11311C030E002C0220F331F6A95E2F720952423F2
S11311D0208360E070E0CB010895CF93DF931F92EA
S11311E0CDB7DEB78983962F8981682F70E002C05E
S11311F0759567959A95E2F761707727072E000C2D
S1131200880B990B0F90DF91CF91089584B582607C
S113121084BD8CE787BD82E085BD7894EEE6F0E07E
S113122080818260808360E070E0CB0108956091EA
S1131230C7017091C8018091C9019091CA010895B4
S113124082E08093B00093E19093B3008093B10067
S11312508093700060E070E0CB0108951F920F92BC
S11312600FB60F9211248F939F93AF93BF938091E6
S1131270C7019091C801A091C901B091CA0101961A
S1131280A11DB11D8093C7019093C801A093C9010A
S1131290B093CA01BF91AF919F918F910F900FBEF0
S11312A00F901F9018951F920F920FB60F92112452
S11312B08F939F93AF93BF938091C3019091C40187
S11312C0A091C501B091C6010A96A11DB11D8093DC
S11312D0C3019093C401A093C501B093C601BF910B
S11312E0AF919F918F910F900FBE0F901F90189503
S11312F0052E97FB1EF400940E948F0957FD07D01A
S11313000E949D0907FC03D04EF40C948F0950955C
S11313104095309521953F4F4F4F5F4F08959095DD
S11313208095709561957F4F8F4F9F4F0895EE0F75
S1131330FF1F0590F491E02D0994A1E21A2EAA1B37
S1131340BB1BFD010DC0AA1FBB1FEE1FFF1FA21771
S1131350B307E407F50720F0A21BB30BE40BF50B6E
S1131360661F771F881F991F1A9469F760957095F7
S1131370809590959B01AC01BD01CF010895AEE02D
S1131380B0E0E5ECF9E00C94A40C0D891E898F897A
S1131390988D26E02C831A83098397FF02C080E08E
S11313A090E801979E838D83AE01455E5F4F698D02
S11313B07A8DCE0101960E94EF094D815E8157FD21
S11313C00AC02F813885421753070CF49A01F8019B
S11313D0E20FF31F10822E96E4E00C94C00CABE0F5
S11313E0B0E0E5EFF9E00C94960C6C017B018A0106
S11313F0FC0117821682838181FFCCC1CE01019644
S11314003C01F6019381F70193FD859193FF81914E
S11314107F01882309F4BAC1853239F493FD85919B
S113142093FF81917F01853229F4B60190E00E94F7
S1131430E60BE7CF912C212C312CFFE1F315D8F0EA
S11314408B3279F038F4803279F08332A1F4232D91
S113145020611DC08D3261F0803369F4232D216039
S113146016C0832D8260382EE32DE4603E2E2AC000
S1131470F32DF8601DC037FC2DC020ED280F2A3055
S113148040F08E32B9F436FC81C1232D2064322E13
S113149019C036FE06C08AE0989E200D1124922EB3
S11314A011C0EAE02E9E200D1124222EF32DF062AD
S11314B03F2E08C08C3621F4832D8068382E02C05C
S11314C0883641F4F70193FD859193FF81917F0163
S11314D08111B3CF982F9F7D9554933028F40C5FDE
S11314E01F4F9FE399830DC0833631F0833771F02A
S11314F0833509F059C021C0F801808189830E5FCA
S11315001F4F88248394912C530113C02801F2E0C7
S11315104F0E511CF801A080B18036FE03C0692D26
S113152070E002C06FEF7FEFC5010E94DB0B4C013E
S11315308201F32DFF773F2E16C0280122E0420ED0
S1131540511CF801A080B18036FE03C0692D70E003
S113155002C06FEF7FEFC5010E94D00B4C01F32D49
S1131560F0683F2E820133FC1BC0822D90E0881668
S11315709906B0F4B60180E290E00E94E60B2A944A
S1131580F4CFF50137FC859137FE81915F01B601F7
S113159090E00E94E60B21102A9421E0821A91081F
S11315A08114910471F7E8C0843611F0893641F54D
S11315B0F80137FE07C060817181828193810C5FDD
S11315C01F4F08C060817181072E000C880B990B96
S11315D00E5F1F4FF32DFF763F2E97FF09C09095A6
S11315E08095709561957F4F8F4F9F4FF0683F2E88
S11315F02AE030E0A3010E94220C882E861845C000
S1131600853731F4232D2F7EB22E2AE030E025C019
S1131610932D997FB92E8F36C1F018F4883579F05F
S1131620B5C0803719F0883721F0B0C0E92FE061E8
S1131630BE2EB4FE0DC0FB2DF460BF2E09C034FED7
S11316400AC0292F2660B22E06C028E030E005C06B
S113165020E130E002C020E132E0F801B7FE07C02B
S113166060817181828193810C5F1F4F06C060810C
S1131670718180E090E00E5F1F4FA3010E94220C55
S1131680882E8618FB2DFF773F2E36FE0DC0232DA6
S11316902E7FA22E891458F434FE0BC032FC09C0EC
S11316A0832D8E7EA82E05C0B82CA32C03C0B82C85
S11316B001C0B92CA4FE0FC0FE01E80DF11D80810C
S11316C0803321F49A2D997EA92E09C0A2FE06C06A
S11316D0B394B39404C08A2D867809F0B394A3FC20
S11316E011C0A0FE06C0B21488F4280C922C9B18DA
S11316F00EC0B21460F4B60180E290E00E94E60BE2
S1131700B394F7CFB21418F42B1802C0982C212CE0
S1131710A4FE10C0B60180E390E00E94E60BA2FE96
S113172017C0A1FC03C088E790E002C088E590E000
S1131730B6010CC08A2D867859F0A1FE02C08BE256
S113174001C080E2A7FC8DE2B60190E00E94E60BA6
S1131750891438F4B60180E390E00E94E60B9A9471
S1131760F7CF8A94F301E80DF11D8081B60190E072
S11317700E94E60B8110F5CF222009F442CEB60177
S113178080E290E00E94E60B2A94F6CFF60186816F
S1131790978102C08FEF9FEF2B96E2E10C94B20C7D
S11317A0FC010590615070400110D8F78095909528
S11317B08E0F9F1F0895FC0161507040019001102D
S11317C0D8F7809590958E0F9F1F08950F931F93C0
S11317D0CF93DF93FB01238121FD03C08FEF9FEFA4
S11317E02CC022FF16C046815781248135814217BF
S11317F0530744F4A081B1819D012F5F3F4F318392
S113180020838C93268137812F5F3F4F3783268334
S113181014C08B01EC01FB010084F185E02D0995D6
S1131820892BE1F6D80116968D919C911797019614
S113183017969C938E931697CE01DF91CF911F91AB
S11318400F910895FA01AA27283051F1203181F12E
S1131850E8946F936E7F6E5F7F4F8F4F9F4FAF4FB4
S1131860B1E03ED0B4E03CD0670F781F891F9A1FC7
S1131870A11D680F791F8A1F911DA11D6A0F711D7B
S1131880811D911DA11D20D009F468943F912AE087
S1131890269F11243019305D3193DEF6CF0108956F
S11318A0462F4770405D4193B3E00FD0C9F7F6CFA0
S11318B0462F4F70405D4A3318F0495D31FD405268
S11318C0419302D0A9F7EACFB4E0A69597958795FE
S11318D077956795BA95C9F70097610571050895DD
S11318E09B01AC010A2E0694579547953795279589
S11318F0BA95C9F7620F731F841F951FA01D089521
S1131900F999FECF92BD81BDF89A992780B50895C3
S1131910262FF999FECF1FBA92BD81BD20BD0FB607
S1131920F894FA9AF99A0FBE019608952F923F926D
S11319304F925F926F927F928F929F92AF92BF92DB
S1131940CF92DF92EF92FF920F931F93CF93DF9387
S1131950CDB7DEB7CA1BDB0B0FB6F894DEBF0FBEE4
S1131960CDBF09942A88398848885F846E847D8431
S11319708C849B84AA84B984C884DF80EE80FD8033
S11319800C811B81AA81B981CE0FD11D0FB6F894A9
S1111990DEBF0FBECDBFED010895F894FFCF6A
S113199E0100454550524F4D2074726F6E670045DD
S11319AE4550524F4D20646174613A0025303275B2
S11319BE3A253032582025303258202530325820DE
S11319CE253032582025303258004865742064750D
S11319DE206C6965750044616E6720786F612045DF
S11319EE4550524F4D2E2E2E00446120786F6120AB
S11319FE454550524F4D00434152442044455445B1
S1131A0E43544544004341524420455849535400DD
S1131A1E554E4944454E5449464945440052656D18
S1131A2E61696E696E67207061726B004E6F207310
S1131A3E70616365206C656674004552524F522E78
S1071A4E2E2E000034
S9030000FC
